:020000040000FA
:040000008BEF00F092
:020004000000FA
:0A0006008A6AC00E936E280E75EC96
:1000100000F0300E44EC00F00A0E7CEC00F0280EEC
:1000200044EC00F00A0E7CEC00F0280E44EC00F0EA
:100030000A0E7CEC00F00F0E44EC00F00A0E7CEC93
:1000400000F0010E44EC00F0020E75EC00F0060E1C
:1000500044EC00F00A0E7CEC00F01200086E083848
:1000600033EC00F008500F0B066E0A0E0660070F07
:10007000260F062452EC00F01200076EDE5052EC00
:1000800000F0072EFBD71200066E06380F0B8A6EA3
:100090008A9863EC00F006500F0B8A6E8A9863EC26
:1000A00000F01200066E06380F0B8A6E8A8863EC29
:1000B00000F006500F0B8A6E8A8863EC00F00A0E7F
:1000C0007CEC00F0120000000000000000000000C6
:1000D0000000000000008A8A00000000000000000C
:1000E0000000000000008A9A1200056EFA0E7CECF7
:1000F00000F0052EFBD71200036E033A0F0E031417
:10010000046EF00E031686EC00F01200000E0306DB
:06011000045AFDE212009A
:0A0116007F9C7F8EBBEC00F003EC31
:1001200000F0CFEC00F095EF00F004EE00F0000ED0
:10013000F86E010EF76EB80EF66E0D0E006E090029
:10014000F5CFEEFF002EFBD70C0E24EE00F03DECB9
:1001500000F00D0E24EE00F0C4EC00F0D8EC00F03E
:10016000C4502EEC00F0C3502EEC00F0AEEF00F0C7
:06017000012EFED7120073
:0A017600AB8EAC98AC94AC8A659691
:10018000670EAF6E948C1200026EDE50CBEC00F066
:0E019000022EFBD712009EA8FED7AD6E120005
:02019E0092804D
:1001A0002581010EC26E300EC16EF60EC06E1200B9
:0801B000C282C2B2FED71200A8
:0801B80048656C6C6F20576F65
:0601C000726C64210A00CC
:020000040030CA
:0100000015EA
:0100010013EB
:010002007F7E
:010003007F7D
:01000400F902
:010005008B6F
:010006009168
:01000800FFF8
:01000900C036
:01000A00FFF6
:01000B00E014
:01000C00FFF4
:01000D0040B2
:00000001FF
