:020000040000FA
:040000009BEF00F082
:020004000000FA
:10010000FF0E106EFF0E116E000E1106105AFDE26A
:100110001200000E996E876E000E9A6E886E689CB3
:10012000320E676E9598959C12006A6E1200A1AA15
:10013000FED7A19A1200FF0E9A6E8FEC00F0BB0E54
:1001400095EC00F097EC00F080EC00F080EC00F013
:1001500080EC00F080EC00F080EC00F080EC00F02F
:1001600080EC00F080EC00F080EC00F080EC00F01F
:0E01700080EC00F080EC00F080EC00F0E0D7B6
:020000040030CA
:0100000015EA
:0100010013EB
:010002007F7E
:010003007F7D
:01000400F902
:010005008B6F
:010006009168
:01000800FFF8
:01000900C036
:01000A00FFF6
:01000B00E014
:01000C00FFF4
:01000D0040B2
:00000001FF
