:020000040000FA
:040000008AEF00F093
:020004000000FA
:0A0006008A6AC00E936E280E66ECA5
:1000100000F0300E35EC00F00A0E6DEC00F0280E0A
:1000200035EC00F00A0E6DEC00F0280E35EC00F017
:100030000A0E6DEC00F00F0E35EC00F00A0E6DECC0
:1000400000F0010E35EC00F0020E66EC00F0060E3A
:1000500035EC00F00A0E6DEC00F012002C6EDE5054
:1000600043EC00F02C2EFBD712002B6E2B380F0B1D
:100070008A6E8A9854EC00F02B500F0B8A6E8A9887
:1000800054EC00F012002B6E2B380F0B8A6E8A880E
:1000900054EC00F02B500F0B8A6E8A8854EC00F061
:1000A0000A0E6DEC00F012000000000000000000DD
:1000B00000000000000000008A8A0000000000002C
:1000C00000000000000000008A9A12002A6EFA0E5A
:1000D0006DEC00F02A2EFBD71200286E283A0F0E86
:1000E0002814296EF00E281677EC00F01200000E8E
:1000F0002806295AFDE21200800E35EC00F0140E9D
:100100006DEC00F01200C00E35EC00F0140E6DEC3A
:0401100000F01200E9
:0C0114007F9C7F8EFEEC00F003EC00F0FE
:1001200092EF00F0CAEC00F00C0E35EC00F0000E7F
:100130009A6E996E04EE00F0000EF86E020EF76EE5
:10014000460EF66E110E246E0900F5CFEEFF242E3A
:10015000FBD77CEC00F0100E24EE00F02EEC00F04B
:1001600083EC00F0DEEC00F0266E886E010E20EECF
:1001700026F02EEC00F0F4D7BCEF00F0252EFED7D1
:100180001200DE0E506EAD0E516E000E5106505A2A
:10019000FDE2120096680F01538D8D6A00EE02F0A9
:1001A000000EF86E020EF76E240EF66E220E006E32
:1001B0000900F5CFEEFF002EFBD712000F0E966E52
:1001C000C1EC00F08450016EF00E966EC1EC00F0B0
:1001D0008450012601C087FF000E006E00EE02F081
:1001E000100E006402D0FF0E1200EE50016203D028
:0C01F000100EEB501200002AF3D7120092
:0401FC00AB8EAC9882
:10020000AC94AC8A6596670EAF6E948C1200276E24
:10021000DE500EEC01F0272EFBD712009EA8FED771
:04022000AD6E1200AD
:0C022400FFBE77B7D77BBBDB7DBDDD7E66
:10023000DEEEEDEBE7203031323334353637383906
:0602400041424344454623
:0A024600507974686F6E2069732010
:080250004265747465720A0036
:020000040030CA
:0100000015EA
:0100010013EB
:010002007F7E
:010003007F7D
:01000400F902
:010005008B6F
:010006009168
:01000800FFF8
:01000900C036
:01000A00FFF6
:01000B00E014
:01000C00FFF4
:01000D0040B2
:00000001FF
