:020000040000FA
:0400000056EF02F0C5
:020004000000FA
:0A0006007F9C7F8E04EE00F0000ED8
:10001000F86E020EF76EA00EF66E090E2C6E090039
:10002000F5CFEEFF09002C2EFAD704EE09F0000EF2
:10003000F86E020EF76EB00EF66E270E2C6E0900EB
:10004000F5CFEEFF09002C2EFAD704EE30F0000EAB
:10005000F86E020EF76EE60EF66E090E2C6E0900B3
:10006000F5CFEEFF09002C2EFAD704EE39F0000E82
:10007000F86E020EF76EF80EF66E090E2C6E090081
:10008000F5CFEEFF09002C2EFAD706EE00F0000E99
:10009000F86E030EF76E0A0EF66E300E2C6E090027
:1000A000F5CFEEFF09002C2EFAD7000EF86E030EE6
:1000B000F76E460EF66E200E2C6E0900F5CFEEFFA1
:1000C00009002C2EFAD712002A5004EE00F0EBCFD4
:1000D0002EF0295004EE09F0EBCF2DF004EE30F0B5
:1000E000EBCF2FF02D5030EC01F02E5034EC01F01E
:1000F00020EE31F0050EDDEC00F0050E3B6E10EE4B
:1001000036F006EE00F0050E2802F350EBCFE6FFC6
:10011000010F3B2EFBD704EE09F02950180FEBCF4F
:1001200030F0050E3B6E10EE36F0000FE6363B2E3B
:10013000FCD7302EF6D7050E3B6E20EE31F010EED8
:1001400036F02F500216E650DE263B2EFAD72E5000
:1001500034EC01F020EE31F0050ED3EC00F012008B
:10016000936A956A836A8A6A4BEC01F08A8A8A826A
:100170008A904BEC01F03F0E3EEC01F0C1EC00F038
:100180001200266AB80E26103EEC01F0256A000E19
:1001900038EC01F0252A400E2564F9D7262A080EEE
:1001A0002662F0D712008A848A96276EDECF83FFFC
:1001B00044EC01F0272EFAD7120095688A848A86CB
:1001C000276E44EC01F083CFDEFF272EFAD7956A25
:1001D000120029EC01F0000E38EC01F03E0E38EC74
:1001E00001F02A0E38EC01F02A0E38EC01F02A0E4C
:1001F00038EC01F03A0E38EC01F0000E38EC01F06A
:100200002E0E38EC01F02A0E38EC01F02A0E38ECF4
:1002100001F02A0E38EC01F03E0E38EC01F0000E31
:1002200038EC01F01200266A400E3EEC01F0B80EE8
:1002300026103EEC01F0010E256E255038EC01F041
:10024000252A400E2564F9D7262A080E2662ECD707
:100250001200B80E3EEC01F0400E3EEC01F0120030
:10026000B8093EEC01F0120040093EEC01F012002A
:10027000836E8A848A9644EC01F01200836E8A941D
:100280008A9644EC01F012008A884BEC01F08A98BF
:100290004BEC01F01200FF0E246E242EFED712004C
:1002A0000300090015002300290035004300390030
:1002B0000000010001000200030004000500060028
:1002C000060005000500010001000300050005000F
:1002D00005000100030001000700070005000300FE
:1002E000030001000700E0008300FE00FE00F800AC
:1002F000E000E0008300FE00FF00FF000F000F00A1
:100300003F000000FF00FF000F00000000000000A1
:1003100000000000000012001F00100000001D007F
:10032000150015001500170011001100150015002B
:100330001F0007000400040004001F001700150040
:10034000150015001D001F001500150015001D00EB
:10035000010001001900050003001F001500150031
:0E03600015001F0017001500150015001F00E6
:02036E00000E7F
:100370003C6EFE0E3D6E020E3E6EF8EC01F0010E7C
:100380003C6EFF0E3D6E000E3E6EF8EC01F0020E6C
:100390003C6EFF0E3D6E200E3E6EF8EC01F0030E3B
:1003A0003C6EFF0E3D6E000E3E6EF8EC01F0040E4A
:1003B0003C6EFF0E3D6E000E3E6EF8EC01F0050E39
:1003C0003C6EFF0E3D6E020E3E6EF8EC01F0060E26
:1003D0003C6EFF0E3D6E000E3E6EF8EC01F0070E17
:1003E0003C6E3F0E3D6E200E3E6EF8EC01F01200AA
:1003F0003C5030EC01F0000E34EC01F0000E38EC13
:1004000001F0030E3F6E3D5038EC01F0130E406ECC
:100410003E5038EC01F0402EFBD73F2EF4D73D5034
:1004200038EC01F0000E38EC01F0000E38EC01F071
:020430001200B8
:0E043200DE0E506EAD0E516E000E5106505A89
:10044000FDE2120096680F01538D8D6A00EE02F0F6
:10045000000EF86E040EF76ED00EF66E220E006ED1
:100460000900F5CFEEFF002EFBD712000F0E966E9F
:1004700019EC02F08450016EF00E966E19EC02F049
:100480008450012601C087FF000E006E00EE02F0CE
:10049000100E006402D0FF0E1200EE50016203D075
:1004A000100EEB501200002AF3D71200B0EC00F04F
:1004B000B7EC01F003EC00F05EEF02F0000E296EE5
:1004C000010E2A6E040E286E64EC00F066EF02F056
:1004D000FFBE77B7D77BBBDB7DBDDD7EDEEEEDEB10
:1004E000E7203031323334353637383941424344EE
:0204F00045467F
:020000040030CA
:0100000015EA
:0100010013EB
:010002007F7E
:010003007F7D
:01000400F902
:010005008B6F
:010006009168
:01000800FFF8
:01000900C036
:01000A00FFF6
:01000B00E014
:01000C00FFF4
:01000D0040B2
:00000001FF
