:020000040000FA
:0400000023EF02F0F8
:020004000000FA
:0A0006007F9C7F8E04EE00F0000ED8
:10001000F86E070EF76E240EF66E090E0B6E0900D1
:10002000F5CFEEFF09000B2EFAD704EE09F0000E13
:10003000F86E070EF76E360EF66E270E0B6E090081
:10004000F5CFEEFF09000B2EFAD704EE30F0000ECC
:10005000F86E070EF76E6C0EF66E090E0B6E090049
:10006000F5CFEEFF09000B2EFAD704EE39F0000EA3
:10007000F86E070EF76E7E0EF66E090E0B6E090017
:10008000F5CFEEFF09000B2EFAD705EE00F0000EBB
:10009000F86E070EF76E900EF66E0F0E0B6E0900DF
:1000A000F5CFEEFF09000B2EFAD7000EF86E070E03
:1000B000F76EAE0EF66E0F0E0B6E0900F5CFEEFF6B
:1000C00009000B2EFAD7000EF86E070EF76ECC0E55
:1000D000F66E0F0E0B6E0900F5CFEEFF09000B2E2A
:1000E000FAD7000EF86E070EF76EEA0EF66E0A0EDD
:1000F0000B6E0900F5CFEEFF09000B2EFAD71200A8
:1001000022C008F023C009F00A6EFF0E0A6201D077
:100110000BD007EE00F0090E22022350F324EBCFA0
:1001200007F099EC00F012000A0E076E99EC00F04F
:100130001200095004EE00F0EBCF0DF0085004EE71
:1001400009F0EBCF0CF004EE30F0EBCF0EF004EE44
:1001500009F00850120FEBCF0FF0DAEC00F0050EAB
:100160001A6E10EE15F0000FE6361A2EFCD70F2E81
:10017000F6D7E9EC00F004EE09F00850090FEBCFD8
:100180000FF0050E0F6201D01200085004EE39F096
:10019000EBCF0EF00C2ADAEC00F0050E1A6E10EE22
:1001A00015F0000FE6321A2EFCD70F2EF6D7E9EC29
:1001B00000F01200050E1A6E10EE15F005EE00F0BC
:1001C000050E0702F350EBCFE6FF010F1A2EFBD707
:1001D00012000C5072EC03F00D5076EC03F020EEA0
:1001E00010F0050E19EC03F0050E1A6E20EE10F05B
:1001F00010EE15F000EE10F00E50EE16E650DE2672
:100200001A2EFAD70D5076EC03F020EE10F0050E02
:1002100008EC03F01200030E72EC03F0000E76EC13
:1002200003F023EE00F00D0EC7EC01F0000EF86EA7
:10023000070EF76EFE0EF66E040ECDEC01F0000E0A
:10024000DE6E000EF86E080EF76E060EF66E040EE9
:10025000CDEC01F0000EDE6E000EF86E080EF76EAB
:100260000E0EF66E040ECDEC01F0000EDE6E000EEA
:10027000F86E080EF76E0E0EF66E040ECDEC01F061
:10028000000EDE6E000EF86E080EF76E160EF66E9D
:10029000040ECDEC01F0000EDE6E000EF86E070EBF
:1002A000F76EFE0EF66E040ECDEC01F0000EDE6E63
:1002B000000EF86E080EF76E1E0EF66E050ECDECF3
:1002C00001F0000EDE6E000EF86E080EF76E280EBE
:1002D000F66E010ECDEC01F00D0EC7EC01F023EE31
:1002E00000F012EC03F01200030E72EC03F0000EAB
:1002F00076EC03F023EE00F0120EC7EC01F0000ED6
:10030000F86E080EF76E2A0EF66E050ECDEC01F0B3
:10031000000EDE6E000EF86E080EF76E0E0EF66E14
:10032000040ECDEC01F0000EDE6E000EF86E080E2D
:10033000F76E060EF66E040ECDEC01F0000EDE6ECA
:10034000000EF86E080EF76E340EF66E040ECDEC4D
:1003500001F0000EDE6E000EF86E080EF76E3C0E19
:10036000F66E040ECDEC01F0000EDE6E000EF86E9F
:10037000080EF76E280EF66E010ECDEC01F0120E8F
:10038000C7EC01F023EE00F012EC03F012002F6E28
:10039000000EDE6E2F2EFCD712002F6E0900F5CF57
:0803A000DEFF2F2EFBD7120037
:0803A800100E2D6E2D2EFED764
:1003B000120096680F01538D8D6A946A2E6A06EEBC
:1003C00000F0000EF86E090EF76E080EF66E0F0EB6
:1003D0002B6E0900F5CFEEFF2B2EFBD7000EF86E2B
:1003E000090EF76E180EF66E0F0E2B6E0900F5CF84
:1003F000EEFF2B2EFBD712000F0E966ED4EC01F001
:1004000084502C6EF00E966ED4EC01F084502C26A5
:100410002CC082FFFF0E2C6202D02E6A13D02C500B
:100420002E6201D00FD02CC02EF006EE00F00F0E81
:100430002B6EEE502C6203D00E0EEB5012002B2EC2
:10044000F8D700D0FF0CD9EC01F0E3EC02F05DEC42
:1004500002F003EC00F0C8EC02F02FEF02F0FCEC2D
:1004600001F01C6EFF0E1C6201D014D0FE0E1C6247
:100470000DD000D0AFEC02F01C6E000E1C640AD050
:10048000010E1C6216D074EC01F004D01C5069EC13
:1004900002F000D01B2A7F0E1B6203D0FF0E80ECFF
:1004A00000F0FE0E1B62DBD7000E1B6E80EC00F02E
:1004B000D6D70BEC01F05BEF02F0410E256E430E38
:1004C000266E420E276E440E286E040E226E236E98
:1004D0001200246E24BC01D02DD0256201D00AD098
:1004E000266201D00FD0276201D014D0286200000C
:1004F00019D01200000E226201D0FBD780EC00F070
:100500002206F7D7080E226201D0F3D780EC00F064
:10051000222AEFD7080E236201D0EBD780EC00F03F
:10052000232AE7D7000E236201D0E3D780EC00F046
:100530002306DFD707EE51F0090E22022350F324E1
:10054000EB50296E2966120007EE00F0090E220218
:100550002350F32424C0EBFF80EC00F01200510E76
:100560002A6E07EE00F0000E1200010E1200EE6679
:100570002A2EF9D7FCD7510E2A6E07EE00F018EE9E
:1005800000F0EE50E662F1D72A2EFBD7020E1200E1
:1005900022EC04F007EE00F0510E306E000EEE6E0D
:1005A000302EFDD708EE00F0510E306E000EEE6ECC
:1005B000302EFDD707EE51F0510E306E000EEE6E6C
:0605C000302EFDD71200F1
:0A05C600936A956A836A8A6A8DECD5
:1005D00003F08A8A8A928A908DEC03F03F0E80ECB9
:1005E00003F0F6EC02F08A828A901200046AB80ED8
:1005F000041080EC03F0036A000E7AEC03F0032A87
:10060000400E0364F9D7042A080E0462F0D71200E2
:100610008A848A96056EDECF83FF86EC03F0052E72
:10062000FAD712008A928A8008EC03F08A828A90B4
:10063000120095688A848A86056E86EC03F08A88A3
:100640008DEC03F083CFDEFF8A988DEC03F0052E4E
:10065000F6D7956A12006BEC03F0000E7AEC03F00B
:100660003E0E7AEC03F02A0E7AEC03F02A0E7AECB6
:1006700003F02A0E7AEC03F03A0E7AEC03F0000E47
:100680007AEC03F02E0E7AEC03F02A0E7AEC03F0EB
:100690002A0E7AEC03F02A0E7AEC03F03E0E7AEC86
:1006A00003F0000E7AEC03F01200046A400E80ECB6
:1006B00003F0B80E041080EC03F0010E036E03503B
:1006C0007AEC03F0032A400E0364F9D7042A080EDB
:1006D0000462ECD71200B80E80EC03F0400E80EC00
:1006E00003F01200B80980EC03F01200400980EC1E
:1006F00003F01200836E8A848A9686EC03F012005F
:10070000836E8A948A9686EC03F012008A888DECB8
:1007100003F08A988DEC03F01200100E006E002E8C
:04072000FED71200EE
:0C072400030009000F0017001D00230057
:100730002B0031003700000001000100020003001F
:100740000400050006000600050005000100010088
:10075000030005000500050001000300010007007B
:100760000700050003000300010007000700C100A7
:100770007F007F001F0007000700C1007F00FF000F
:10078000FF00F000F000FC00FF00FF00FF00F000A1
:1007900000000000000000000000000012001F0028
:1007A000100000001D0015001500150017001100B5
:1007B0001100150015001F000700040004000400CC
:1007C0001F0017001500150015001D001F00150063
:1007D000150015001D0001000100190005000300AF
:1007E0001F001500150015001F001700150015004B
:1007F00015001F001F001F001F001F001F003800F2
:1008000044004400280038004400440038007C00C4
:100810001400340048007C005400540044000400DC
:1008200004007C000400040017007C00200010007D
:1008300020007C007C00080010007C003800440090
:040840005400300030
:0C084400000E1D6EFE0E1E6E020E1F6EDA
:1008500063EC04F0010E1D6EFF0E1E6E000E1F6E87
:1008600063EC04F0020E1D6EFF0E1E6E200E1F6E56
:1008700063EC04F0030E1D6EFF0E1E6E000E1F6E65
:1008800063EC04F0040E1D6EFF0E1E6E000E1F6E54
:1008900063EC04F0050E1D6EFF0E1E6E020E1F6E41
:1008A00063EC04F0060E1D6EFF0E1E6E000E1F6E32
:1008B00063EC04F0070E1D6E3F0E1E6E200E1F6EC1
:1008C00063EC04F012001D5072EC03F0000E76ECA5
:1008D00003F0000E7AEC03F0030E206E1E507AEC4B
:1008E00003F0130E216E1F507AEC03F0212EFBD77C
:1008F000202EF4D71E507AEC03F0000E7AEC03F0B1
:08090000000E7AEC03F0120076
:0809080077B7D77BBBDB7DBD97
:10091000DDE7DEED7EEEAA0001020304050607080E
:08092000094142434400FE00BE
:020000040030CA
:0100000015EA
:0100010013EB
:010002007F7E
:010003007F7D
:01000400F902
:010005008B6F
:010006009168
:01000800FFF8
:01000900C036
:01000A00FFF6
:01000B00E014
:01000C00FFF4
:01000D0040B2
:00000001FF
