:020000040000FA
:0400000020EF02F0FB
:020004000000FA
:0A0006007F9C7F8E04EE00F0000ED8
:10001000F86E070EF76E1A0EF66E090E0B6E0900DB
:10002000F5CFEEFF09000B2EFAD704EE09F0000E13
:10003000F86E070EF76E2C0EF66E270E0B6E09008B
:10004000F5CFEEFF09000B2EFAD704EE30F0000ECC
:10005000F86E070EF76E620EF66E090E0B6E090053
:10006000F5CFEEFF09000B2EFAD704EE39F0000EA3
:10007000F86E070EF76E740EF66E090E0B6E090021
:10008000F5CFEEFF09000B2EFAD705EE00F0000EBB
:10009000F86E070EF76E860EF66E0F0E0B6E0900E9
:1000A000F5CFEEFF09000B2EFAD7000EF86E070E03
:1000B000F76EA40EF66E0F0E0B6E0900F5CFEEFF75
:1000C00009000B2EFAD7000EF86E070EF76EC20E5F
:1000D000F66E0F0E0B6E0900F5CFEEFF09000B2E2A
:1000E000FAD7000EF86E070EF76EE00EF66E0A0EE7
:1000F0000B6E0900F5CFEEFF09000B2EFAD71200A8
:1001000022C008F023C009F00A6EFF0E0A6201D077
:100110000BD007EE00F0090E22022350F324EBCFA0
:1001200007F099EC00F012000A0E076E99EC00F04F
:100130001200095004EE00F0EBCF0DF0085004EE71
:1001400009F0EBCF0CF004EE30F0EBCF0EF004EE44
:1001500009F00850120FEBCF0FF0DAEC00F0050EAB
:100160001A6E10EE15F0000FE6361A2EFCD70F2E81
:10017000F6D7E9EC00F004EE09F00850090FEBCFD8
:100180000FF0050E0F6201D01200085004EE39F096
:10019000EBCF0EF00C2ADAEC00F0050E1A6E10EE22
:1001A00015F0000FE6321A2EFCD70F2EF6D7E9EC29
:1001B00000F01200050E1A6E10EE15F005EE00F0BC
:1001C000050E0702F350EBCFE6FF010F1A2EFBD707
:1001D00012000C506DEC03F00D5071EC03F020EEAA
:1001E00010F0050E14EC03F0050E1A6E20EE10F060
:1001F00010EE15F000EE10F00E50EE16E650DE2672
:100200001A2EFAD70D5071EC03F020EE10F0050E07
:1002100003EC03F01200030E6DEC03F0000E71EC22
:1002200003F023EE00F00D0EC7EC01F0000EF86EA7
:10023000070EF76EF40EF66E040ECDEC01F0000E14
:10024000DE6E000EF86E070EF76EFC0EF66E040EF4
:10025000CDEC01F0000EDE6E000EF86E080EF76EAB
:10026000040EF66E040ECDEC01F0000EDE6E000EF4
:10027000F86E080EF76E040EF66E040ECDEC01F06B
:10028000000EDE6E000EF86E080EF76E0C0EF66EA7
:10029000040ECDEC01F0000EDE6E000EF86E070EBF
:1002A000F76EF40EF66E040ECDEC01F0000EDE6E6D
:1002B000000EF86E080EF76E140EF66E050ECDECFD
:1002C00001F0000EDE6E000EF86E080EF76E1E0EC8
:1002D000F66E010ECDEC01F00D0EC7EC01F023EE31
:1002E00000F00DEC03F01200030E6DEC03F0000EB5
:1002F00071EC03F023EE00F0120EC7EC01F0000EDB
:10030000F86E080EF76E200EF66E050ECDEC01F0BD
:10031000000EDE6E000EF86E080EF76E040EF66E1E
:10032000040ECDEC01F0000EDE6E000EF86E070E2E
:10033000F76EFC0EF66E040ECDEC01F0000EDE6ED4
:10034000000EF86E080EF76E2A0EF66E040ECDEC57
:1003500001F0000EDE6E000EF86E080EF76E320E23
:10036000F66E040ECDEC01F0000EDE6E000EF86E9F
:10037000080EF76E1E0EF66E010ECDEC01F0120E99
:10038000C7EC01F023EE00F00DEC03F012002F6E2D
:10039000000EDE6E2F2EFCD712002F6E0900F5CF57
:0803A000DEFF2F2EFBD7120037
:0803A800100E2D6E2D2EFED764
:1003B000120096680F01538D8D6A2E6A06EE00F0CA
:1003C000000EF86E080EF76EFE0EF66E0F0E2B6E18
:1003D0000900F5CFEEFF2B2EFBD7000EF86E090EAD
:1003E000F76E0E0EF66E0F0E2B6E0900F5CFEEFFB8
:1003F0002B2EFBD712000F0E966ED4EC01F084501A
:100400002C6EF00E966ED4EC01F084502C26FF0E6C
:100410002C6202D02E6A13D02C502E6201D00FD045
:100420002CC02EF006EE00F00F0E2B6EEE502C625C
:1004300003D00E0EEB5012002B2EF8D700D0FF0C7D
:10044000D9EC01F0DEEC02F05AEC02F003EC00F023
:10045000C3EC02F02CEF02F0FBEC01F01C6EFF0E7F
:100460001C6201D014D0FE0E1C620DD000D0A9EC8D
:1004700002F01C6E000E1C640AD0010E1C6216D025
:1004800074EC01F004D01C5066EC02F000D01B2A82
:100490007F0E1B6203D0FF0E80EC00F0FE0E1B628D
:1004A000DBD7000E1B6E80EC00F0D6D70BEC01F012
:1004B00058EF02F0410E256E430E266E420E276E57
:1004C000440E286E040E226E236E1200246E24BC8D
:1004D00001D02AD0256201D007D0266201D00CD0ED
:1004E00027621AD011D01200000E226201D0FBD771
:1004F00080EC00F02206F7D7080E226201D0F3D775
:1005000080EC00F0222AEFD7080E236201D0EBD74F
:1005100080EC00F0232AE7D7000E236201D0E3D756
:1005200080EC00F02306DFD707EE51F0090E22021F
:100530002350F324EB50296E2966120007EE00F0D9
:10054000090E22022350F32424C0EBFF80EC00F0BC
:100550001200510E2A6E07EE00F0EE6601D00FD0A9
:100560002A2EFBD7510E2A6E07EE00F018EE00F08F
:10057000EE50E66206D02A2EFBD7020E1200000EC5
:100580001200010E12001DEC04F007EE00F0510EF7
:10059000306E000EEE6E302EFDD708EE00F0510EDC
:1005A000306E000EEE6E302EFDD707EE51F0510E7C
:0C05B000306E000EEE6E302EFDD71200F3
:0405BC00936A956A3F
:1005C000836A8A6A88EC03F08A8A8A928A9088EC25
:1005D00003F03F0E7BEC03F0F1EC02F08A828A908C
:1005E0001200046AB80E04107BEC03F0036A000EDC
:1005F00075EC03F0032A400E0364F9D7042A080EB1
:100600000462F0D712008A848A96056EDECF83FFDB
:1006100081EC03F0052EFAD712008A928A8003EC4F
:1006200003F08A828A90120095688A848A86056E11
:1006300081EC03F08A8888EC03F083CFDEFF8A9890
:1006400088EC03F0052EF6D7956A120066EC03F0ED
:10065000000E75EC03F03E0E75EC03F02A0E75ECFF
:1006600003F02A0E75EC03F02A0E75EC03F03A0E37
:1006700075EC03F0000E75EC03F02E0E75EC03F034
:100680002A0E75EC03F02A0E75EC03F02A0E75ECB9
:1006900003F03E0E75EC03F0000E75EC03F0120053
:1006A000046A400E7BEC03F0B80E04107BEC03F000
:1006B000010E036E035075EC03F0032A400E036431
:1006C000F9D7042A080E0462ECD71200B80E7BECAE
:1006D00003F0400E7BEC03F01200B8097BEC03F052
:1006E000120040097BEC03F01200836E8A848A9624
:1006F00081EC03F01200836E8A948A9681EC03F0F9
:1007000012008A8888EC03F08A9888EC03F01200C3
:0A071000100E006E002EFED712003E
:06071A00030009000F00BE
:1007200017001D0023002B003100370000000100DE
:100730000100020003000400050006000600050099
:10074000050001000100030005000500050001008F
:10075000030001000700070005000300030001007B
:1007600007000700C1007F007F001F00070007008F
:10077000C1007F00FF00FF00F000F000FC00FF0060
:10078000FF00FF00F000000000000000000000007B
:10079000000012001F00100000001D0015001500D1
:1007A0001500170011001100150015001F000700AB
:1007B0000400040004001F001700150015001500B8
:1007C0001D001F001500150015001D00010001008F
:1007D0001900050003001F001500150015001F007B
:1007E00017001500150015001F001F001F001F0037
:1007F0001F001F0038004400440028003800440057
:10080000440038007C001400340048007C00540090
:1008100054004400040004007C000400040017009D
:100820007C002000100020007C007C0008001000EC
:0A0830007C00380044005400300042
:06083A00000E1D6EFE0E13
:100840001E6E020E1F6E5EEC04F0010E1D6EFF0E9A
:100850001E6E000E1F6E5EEC04F0020E1D6EFF0E8B
:100860001E6E200E1F6E5EEC04F0030E1D6EFF0E5A
:100870001E6E000E1F6E5EEC04F0040E1D6EFF0E69
:100880001E6E000E1F6E5EEC04F0050E1D6EFF0E58
:100890001E6E020E1F6E5EEC04F0060E1D6EFF0E45
:1008A0001E6E000E1F6E5EEC04F0070E1D6E3F0EF6
:1008B0001E6E200E1F6E5EEC04F012001D506DECDB
:1008C00003F0000E71EC03F0000E75EC03F0030E64
:1008D000206E1E5075EC03F0130E216E1F5075EC48
:1008E00003F0212EFBD7202EF4D71E5075EC03F019
:0E08F000000E75EC03F0000E75EC03F0120024
:0208FE0077B7CA
:10090000D77BBBDB7DBDDDE7DEED7EEEAA0001021D
:0E091000030405060708094142434400FE00A7
:020000040030CA
:0100000015EA
:0100010013EB
:010002007F7E
:010003007F7D
:01000400F902
:010005008B6F
:010006009168
:01000800FFF8
:01000900C036
:01000A00FFF6
:01000B00E014
:01000C00FFF4
:01000D0040B2
:00000001FF
