:020000040000FA
:0400000083EF02F098
:020004000000FA
:0A0006007F9C7F8E04EE00F0000ED8
:10001000F86E020EF76EF80EF66E090E2E6E0900DF
:10002000F5CFEEFF09002E2EFAD704EE09F0000EF0
:10003000F86E030EF76E0A0EF66E270E2E6E09008E
:10004000F5CFEEFF09002E2EFAD704EE30F0000EA9
:10005000F86E030EF76E400EF66E090E2E6E090056
:10006000F5CFEEFF09002E2EFAD704EE39F0000E80
:10007000F86E030EF76E520EF66E090E2E6E090024
:10008000F5CFEEFF09002E2EFAD705EE00F0000E98
:10009000F86E030EF76E640EF66E300E2E6E0900CB
:1000A000F5CFEEFF09002E2EFAD7000EF86E030EE4
:1000B000F76EA00EF66E200E2E6E0900F5CFEEFF45
:1000C00009002E2EFAD712002D5004EE00F0EBCFCF
:1000D00030F02C5004EE09F0EBCF2FF004EE30F0AE
:1000E000EBCF31F004EE09F02C50120FEBCF32F0D1
:1000F000A5EC00F0050E3D6E10EE38F0000FE63670
:100100003D2EFCD7322EF6D7B4EC00F004EE09F009
:100110002C50090FEBCF32F0050E326201D01200E5
:100120002C5004EE39F0EBCF31F02F2AA5EC00F083
:10013000050E3D6E10EE38F0000FE6323D2EFCD776
:10014000322EF6D7B4EC00F01200050E3D6E10EE24
:1001500038F005EE00F0050E2B02F350EBCFE6FF72
:10016000010F3D2EFBD712002F505CEC01F03050F8
:1001700060EC01F020EE33F0050E03EC01F0050E0B
:100180003D6E20EE33F010EE38F000EE33F03150DB
:10019000EE16E650DE263D2EFAD7305060EC01F028
:0C01A00020EE33F0050EF9EC00F0120028
:0401AC00936A956A53
:1001B000836A8A6A77EC01F08A8A8A828A9077EC6D
:1001C00001F03F0E6AEC01F0E7EC00F01200286A43
:1001D000B80E28106AEC01F0276A000E64EC01F0FA
:1001E000272A400E2764F9D7282A080E2862F0D75C
:1001F00012008A848A96296EDECF83FF70EC01F0AC
:10020000292EFAD7120095688A848A86296E70ECA6
:1002100001F08A8877EC01F083CFDEFF8A9877ECD3
:1002200001F0292EF6D7956A120055EC01F0000E68
:1002300064EC01F03E0E64EC01F02A0E64EC01F077
:100240002A0E64EC01F02A0E64EC01F03A0E64EC24
:1002500001F0000E64EC01F02E0E64EC01F02A0EA9
:1002600064EC01F02A0E64EC01F02A0E64EC01F05B
:100270003E0E64EC01F0000E64EC01F01200286AFE
:10028000400E6AEC01F0B80E28106AEC01F0010E85
:10029000276E275064EC01F0272A400E2764F9D717
:1002A000282A080E2862ECD71200B80E6AEC01F07A
:1002B000400E6AEC01F01200B8096AEC01F012007D
:1002C00040096AEC01F01200836E8A848A9670EC11
:1002D00001F01200836E8A948A9670EC01F012008D
:1002E0008A8877EC01F08A9877EC01F01200100E02
:0802F000246E242EFED712003B
:0802F800030009000F001700CC
:100300001D0023002B003100370000000100010018
:1003100002000300040005000600060005000500B9
:1003200001000100030005000500050001000300B5
:10033000010007000700050003000300010007009B
:100340000700C1007F007F001F0007000700C100F9
:100350007F00FF00FF00F000F000FC00FF00FF0046
:10036000FF00F0000000000000000000000000009E
:1003700012001F00100000001D00150015001500E0
:10038000170011001100150015001F0007000400E0
:10039000040004001F0017001500150015001D00C3
:1003A0001F001500150015001D00010001001900B7
:1003B000050003001F001500150015001F001700A1
:0803C0001500150015001F00D7
:0803C800000E3E6EFE0E3F6EBA
:1003D000020E406E25EC02F0010E3E6EFF0E3F6EE7
:1003E000000E406E25EC02F0020E3E6EFF0E3F6ED8
:1003F000200E406E25EC02F0030E3E6EFF0E3F6EA7
:10040000000E406E25EC02F0040E3E6EFF0E3F6EB5
:10041000000E406E25EC02F0050E3E6EFF0E3F6EA4
:10042000020E406E25EC02F0060E3E6EFF0E3F6E91
:10043000000E406E25EC02F0070E3E6E3F0E3F6E42
:10044000200E406E25EC02F012003E505CEC01F0F4
:10045000000E60EC01F0000E64EC01F0030E416E42
:100460003F5064EC01F0130E426E405064EC01F01A
:10047000422EFBD7412EF4D73F5064EC01F0000E22
:0C04800064EC01F0000E64EC01F01200CE
:04048C00DE0E506EC2
:10049000AD0E516E000E5106505AFDE212009668E4
:1004A0000F01538D8D6A00EE02F0000EF86E050EFE
:1004B000F76E400EF66E220E006E0900F5CFEEFFCD
:1004C000002EFBD712000F0E966E46EC02F0845001
:1004D000016EF00E966E46EC02F08450012601C0CB
:1004E00087FF000E006E00EE02F0100E006402D0D6
:1004F000FF0E1200EE50016203D0100EEB501200FE
:10050000002AF3D71200D6EC00F0E4EC01F003EC83
:1005100000F08BEF02F02C6A2CC02BF02B2A2D6AF6
:1005200064EC00F02D2A090E2B602B6A2B2A090E91
:100530002D62F6D72C2A090E2C62EED79EEF02F020
:10054000FFBE77B7D77BBBDB7DBDDD7EDEEEEDEB9F
:10055000E72030313233343536373839414243447D
:0205600045460E
:020000040030CA
:0100000015EA
:0100010013EB
:010002007F7E
:010003007F7D
:01000400F902
:010005008B6F
:010006009168
:01000800FFF8
:01000900C036
:01000A00FFF6
:01000B00E014
:01000C00FFF4
:01000D0040B2
:00000001FF
