:020000040000FA
:04000000B7EF00F066
:020004000000FA
:10010000000E106E010E116E000E1106105AFDE267
:10011000120080EC00F00D0E836E80EC00F0050EF6
:10012000836E120080EC00F0070E836E80EC00F00E
:10013000050E836E12008D6E050E836E000E966E98
:100140001200FF0E966E010E836E80EC00F0050E1D
:10015000836E84501200FF0E966E040E836E80EC48
:1001600000F08450106E050E836E10501200000EC9
:10017000956E050E836EFF0E966E000E996EABECBB
:0801800000F0876E00EF00F0B3
:020000040030CA
:0100000015EA
:0100010013EB
:010002007F7E
:010003007F7D
:01000400F902
:010005008B6F
:010006009168
:01000800FFF8
:01000900C036
:01000A00FFF6
:01000B00E014
:01000C00FFF4
:01000D0040B2
:00000001FF
