:020000040000FA
:04000000BBEF00F062
:020004000000FA
:10010000FF0E106EFF0E116E000E1106105AFDE26A
:10011000120080EC00F00D0E836E80EC00F0050EF6
:10012000836E120080EC00F0070E836E80EC00F00E
:10013000050E836E1200136E050E836E000E966E12
:100140001350846E1200FF0E966E010E836E80ECCB
:1001500000F08450126E050E836E12501200FF0ED6
:10016000966E040E836E80EC00F08450126E050EC5
:10017000836E12501200000E956E050E836EFF0EF8
:10018000966E000E996E876E000E9A6E886E100E37
:100190009BEC00F080EC00F089EC00F080EC00F0CB
:1001A000000EFF0E9BEC00F080EC00F092EC00F0F3
:1001B00080EC00F0000EA3EC00F0876E80EC00F005
:1001C000000EAFEC00F0886E80EC00F0E0D700EF9E
:0201D00000F03D
:020000040030CA
:0100000015EA
:0100010013EB
:010002007F7E
:010003007F7D
:01000400F902
:010005008B6F
:010006009168
:01000800FFF8
:01000900C036
:01000A00FFF6
:01000B00E014
:01000C00FFF4
:01000D0040B2
:00000001FF
