:020000040000FA
:0400000058EF00F0C5
:020004000000FA
:0A000600956A936A836A816A81900B
:1000100081823F0E44EC00F03F0E44EC00F08190F2
:1000200081820A0E54EC00F08182818A0A0E54EC1F
:1000300000F0C00E44EC00F01200026A400E44ECE6
:1000400000F0B80E021044EC00F000002DEC00F0BF
:10005000022A070E0262F2D71200010E016E015051
:100060003EEC00F0012A400E0164F9D71200400E68
:1000700044EC00F0B80E44EC00F01200818481964C
:10008000836E4AEC00F0120081948196836E4AECF4
:1000900000F012000A0E54EC00F0818854EC00F0DD
:1000A000819854EC00F01200006E002EFED7120072
:1000B00003EC00F05CEF00F01DEC00F05EEF00F0F0
:020000040030CA
:0100000015EA
:0100010013EB
:010002007F7E
:010003007F7D
:01000400F902
:010005008B6F
:010006009168
:01000800FFF8
:01000900C036
:01000A00FFF6
:01000B00E014
:01000C00FFF4
:01000D0040B2
:00000001FF
