:020000040000FA
:040000000DEF01F00F
:020004000000FA
:0A0006008A6AC00E936E280E66ECA5
:1000100000F0300E35EC00F00A0E6DEC00F0280E0A
:1000200035EC00F00A0E6DEC00F0280E35EC00F017
:100030000A0E6DEC00F00F0E35EC00F00A0E6DECC0
:1000400000F0010E35EC00F0020E66EC00F0060E3A
:1000500035EC00F00A0E6DEC00F01200296EDE5057
:1000600043EC00F0292EFBD71200286E28380F0B26
:100070008A6E8A9854EC00F028500F0B8A6E8A988A
:1000800054EC00F01200286E28380F0B8A6E8A8814
:1000900054EC00F028500F0B8A6E8A8854EC00F064
:1000A0000A0E6DEC00F012000000000000000000DD
:1000B00000000000000000008A8A0000000000002C
:1000C00000000000000000008A9A1200276EFA0E5D
:1000D0006DEC00F0272EFBD71200256E253A0F0E8F
:1000E0002514266EF00E251677EC00F01200000E97
:1000F0002506265AFDE21200800E35EC00F0140EA3
:100100006DEC00F01200C00E35EC00F0140E6DEC3A
:0401100000F01200E9
:0C011400956A936A836A816A8180818207
:10012000818A040ECCEC00F08190819281948196BA
:100130003F0E836EC2EC00F0AAEC00F01200010E3C
:100140002B6E400E2BC083FFB6EC00F02B2A2B64E5
:10015000F9D7120081908182400EBCEC00F0B80EFD
:10016000BCEC00F0C00EBCEC00F012008184819663
:10017000836EC2EC00F0120081948196836EC2EC13
:1001800000F01200040ECCEC00F08188CCEC00F002
:100190008198CCEC00F012002A6E2A2EFED71200B5
:1001A000DE0E506EAD0E516E000E5106505AFDE23D
:1001B000120096680F01538D8D6A00EE02F0000E5A
:1001C000F86E020EF76E520EF66E220E006E0900E9
:1001D000F5CFEEFF002EFBD712000F0E966ED0EC7F
:1001E00000F08450016EF00E966ED0EC00F084505A
:1001F000012601C087FF000E006E00EE02F0100E17
:10020000006402D0FF0E1200EE50016203D0100E07
:10021000EB501200002AF3D712008AEC00F011EF25
:0A02200001F09FEC00F013EF01F075
:06022A00AB8EAC98AC9411
:10023000AC8A6596670EAF6E948C1200246EDE5009
:1002400025EC01F0242EFBD712009EA8FED7AD6E40
:0202500012009A
:0E025200FFBE77B7D77BBBDB7DBDDD7EDEEE6A
:10026000EDEBE7203031323334353637383941421F
:040270004344454678
:020000040030CA
:0100000015EA
:0100010013EB
:010002007F7E
:010003007F7D
:01000400F902
:010005008B6F
:010006009168
:01000800FFF8
:01000900C036
:01000A00FFF6
:01000B00E014
:01000C00FFF4
:01000D0040B2
:00000001FF
